{
  "transactions": [
    {
      "hash": "0x856c1aee628b8cb067b4edbe8f1144ab54b9454a662d7e3ebd5980e6477c2409",
      "transactionType": "CREATE",
      "contractName": "DepositTeller",
      "contractAddress": "0xd5b1c83a67fdde10846920462a04f8f67552f8ad",
      "function": null,
      "arguments": [
        "0x5C8A5483bCDB51F858a9cF4a647dF6D34fdDf81c",
        "0x86f11a6db84635f566430e7cB0224F6C4ac6a28F",
        "0x8851862f714f2984c3E3Bcfc9Fafb57D67dB6845",
        "0xf4F3b37236Dd3e0bbcDe9EAA1C6553220A30B9aE"
      ],
      "transaction": {
        "from": "0x5c8a5483bcdb51f858a9cf4a647df6d34fddf81c",
        "gas": "0x1a2417",
        "value": "0x0",
        "input": "0x60a060405234801562000010575f80fd5b506040516200189f3803806200189f833981810160405281019062000036919062000292565b8383815f806101000a81548173ffffffffffffffffffffffffffffffffffffffff021916908373ffffffffffffffffffffffffffffffffffffffff1602179055508060015f6101000a81548173ffffffffffffffffffffffffffffffffffffffff021916908373ffffffffffffffffffffffffffffffffffffffff1602179055508173ffffffffffffffffffffffffffffffffffffffff163373ffffffffffffffffffffffffffffffffffffffff167f8be0079c531659141344cd1fd0a4f28419497f9722a3daafe3b4186f6b6457e060405160405180910390a38073ffffffffffffffffffffffffffffffffffffffff163373ffffffffffffffffffffffffffffffffffffffff167fa3396fd7f6e0a21b50e5089d2da70d5ac0a3bbbd1f617a93f134b7638998019860405160405180910390a350508173ffffffffffffffffffffffffffffffffffffffff1660808173ffffffffffffffffffffffffffffffffffffffff16815250508060025f6101000a81548173ffffffffffffffffffffffffffffffffffffffff021916908373ffffffffffffffffffffffffffffffffffffffff1602179055505050505062000301565b5f80fd5b5f73ffffffffffffffffffffffffffffffffffffffff82169050919050565b5f6200021a82620001ef565b9050919050565b6200022c816200020e565b811462000237575f80fd5b50565b5f815190506200024a8162000221565b92915050565b5f6200025c826200020e565b9050919050565b6200026e8162000250565b811462000279575f80fd5b50565b5f815190506200028c8162000263565b92915050565b5f805f8060808587031215620002ad57620002ac620001eb565b5b5f620002bc878288016200023a565b9450506020620002cf878288016200027c565b9350506040620002e2878288016200023a565b9250506060620002f5878288016200023a565b91505092959194509250565b6080516115706200032f5f395f818161031d015281816104af015281816104fb0152610d9901526115705ff3fe608060405234801561000f575f80fd5b50600436106100f3575f3560e01c80636c222b1711610095578063bf7e214f11610064578063bf7e214f14610281578063f2fde38b1461029f578063f3fef3a3146102bb578063fcab2e14146102eb576100f3565b80636c222b17146101fb5780637a9e5e4b146102175780638da5cb5b146102335780639be918e614610251576100f3565b80634a5e42b1116100d15780634a5e42b1146101755780634fb3ccc51461019157806366a6a4bd146101af57806369adf0f0146101cb576100f3565b8063411557d1146100f7578063464b41581461011557806347e7ef2414610145575b5f80fd5b6100ff61031b565b60405161010c91906110e4565b60405180910390f35b61012f600480360381019061012a919061112b565b61033f565b60405161013c9190611170565b60405180910390f35b61015f600480360381019061015a91906111bc565b61035c565b60405161016c9190611209565b60405180910390f35b61018f600480360381019061018a919061112b565b6105f4565b005b6101996106fa565b6040516101a691906110e4565b60405180910390f35b6101c960048036038101906101c491906111bc565b61071f565b005b6101e560048036038101906101e0919061112b565b610874565b6040516101f29190611209565b60405180910390f35b6102156004803603810190610210919061112b565b6108ba565b005b610231600480360381019061022c919061125d565b6109ac565b005b61023b610b66565b60405161024891906110e4565b60405180910390f35b61026b6004803603810190610266919061112b565b610b89565b6040516102789190611170565b60405180910390f35b610289610bdb565b60405161029691906112e3565b60405180910390f35b6102b960048036038101906102b4919061112b565b610c00565b005b6102d560048036038101906102d091906111bc565b610d08565b6040516102e29190611209565b60405180910390f35b6103056004803603810190610300919061112b565b610e92565b6040516103129190611209565b60405180910390f35b7f000000000000000000000000000000000000000000000000000000000000000081565b6003602052805f5260405f205f915054906101000a900460ff1681565b5f60035f8473ffffffffffffffffffffffffffffffffffffffff1673ffffffffffffffffffffffffffffffffffffffff1681526020019081526020015f205f9054906101000a900460ff166103e857826040517f4eef4d1e0000000000000000000000000000000000000000000000000000000081526004016103df91906110e4565b60405180910390fd5b60045f8473ffffffffffffffffffffffffffffffffffffffff1673ffffffffffffffffffffffffffffffffffffffff1681526020019081526020015f20548210156104a9578160045f8573ffffffffffffffffffffffffffffffffffffffff1673ffffffffffffffffffffffffffffffffffffffff1681526020019081526020015f20546040517f4a77f2fa0000000000000000000000000000000000000000000000000000000081526004016104a09291906112fc565b60405180910390fd5b6104f6337f0000000000000000000000000000000000000000000000000000000000000000848673ffffffffffffffffffffffffffffffffffffffff16610ea7909392919063ffffffff16565b8190507f000000000000000000000000000000000000000000000000000000000000000073ffffffffffffffffffffffffffffffffffffffff166339d6ba3233855f33866040518663ffffffff1660e01b815260040161055a95949392919061135c565b5f604051808303815f87803b158015610571575f80fd5b505af1158015610583573d5f803e3d5ffd5b505050508273ffffffffffffffffffffffffffffffffffffffff163373ffffffffffffffffffffffffffffffffffffffff167fdcbc1c05240f31ff3ad067ef1ee35ce4997762752e3a095284754544f4c709d784846040516105e69291906112fc565b60405180910390a392915050565b610621335f357fffffffff0000000000000000000000000000000000000000000000000000000016610efc565b610660576040517f08c379a000000000000000000000000000000000000000000000000000000000815260040161065790611407565b60405180910390fd5b5f60035f8373ffffffffffffffffffffffffffffffffffffffff1673ffffffffffffffffffffffffffffffffffffffff1681526020019081526020015f205f6101000a81548160ff0219169083151502179055508073ffffffffffffffffffffffffffffffffffffffff167f37803e2125c48ee96c38ddf04e826daf335b0e1603579040fd275aba6d06b6fc60405160405180910390a250565b60025f9054906101000a900473ffffffffffffffffffffffffffffffffffffffff1681565b61074c335f357fffffffff0000000000000000000000000000000000000000000000000000000016610efc565b61078b576040517f08c379a000000000000000000000000000000000000000000000000000000000815260040161078290611407565b60405180910390fd5b600160035f8473ffffffffffffffffffffffffffffffffffffffff1673ffffffffffffffffffffffffffffffffffffffff1681526020019081526020015f205f6101000a81548160ff0219169083151502179055508060045f8473ffffffffffffffffffffffffffffffffffffffff1673ffffffffffffffffffffffffffffffffffffffff1681526020019081526020015f20819055508173ffffffffffffffffffffffffffffffffffffffff167f66ace591f7c88075839f4a0246420d0cc8a34cbe9a924cd0e1ca63c336344f4b826040516108689190611209565b60405180910390a25050565b5f60045f8373ffffffffffffffffffffffffffffffffffffffff1673ffffffffffffffffffffffffffffffffffffffff1681526020019081526020015f20549050919050565b6108e7335f357fffffffff0000000000000000000000000000000000000000000000000000000016610efc565b610926576040517f08c379a000000000000000000000000000000000000000000000000000000000815260040161091d90611407565b60405180910390fd5b8060025f6101000a81548173ffffffffffffffffffffffffffffffffffffffff021916908373ffffffffffffffffffffffffffffffffffffffff1602179055508073ffffffffffffffffffffffffffffffffffffffff167f023af1ceed14144c5453c1f95cc2b33d31d3eb20fb009303beb330836069630660405160405180910390a250565b5f8054906101000a900473ffffffffffffffffffffffffffffffffffffffff1673ffffffffffffffffffffffffffffffffffffffff163373ffffffffffffffffffffffffffffffffffffffff161480610ac1575060015f9054906101000a900473ffffffffffffffffffffffffffffffffffffffff1673ffffffffffffffffffffffffffffffffffffffff1663b700961333305f357fffffffff00000000000000000000000000000000000000000000000000000000166040518463ffffffff1660e01b8152600401610a819392919061145f565b602060405180830381865afa158015610a9c573d5f803e3d5ffd5b505050506040513d601f19601f82011682018060405250810190610ac091906114be565b5b610ac9575f80fd5b8060015f6101000a81548173ffffffffffffffffffffffffffffffffffffffff021916908373ffffffffffffffffffffffffffffffffffffffff1602179055508073ffffffffffffffffffffffffffffffffffffffff163373ffffffffffffffffffffffffffffffffffffffff167fa3396fd7f6e0a21b50e5089d2da70d5ac0a3bbbd1f617a93f134b7638998019860405160405180910390a350565b5f8054906101000a900473ffffffffffffffffffffffffffffffffffffffff1681565b5f60035f8373ffffffffffffffffffffffffffffffffffffffff1673ffffffffffffffffffffffffffffffffffffffff1681526020019081526020015f205f9054906101000a900460ff169050919050565b60015f9054906101000a900473ffffffffffffffffffffffffffffffffffffffff1681565b610c2d335f357fffffffff0000000000000000000000000000000000000000000000000000000016610efc565b610c6c576040517f08c379a0000000000000000000000000000000000000000000000000000000008152600401610c6390611407565b60405180910390fd5b805f806101000a81548173ffffffffffffffffffffffffffffffffffffffff021916908373ffffffffffffffffffffffffffffffffffffffff1602179055508073ffffffffffffffffffffffffffffffffffffffff163373ffffffffffffffffffffffffffffffffffffffff167f8be0079c531659141344cd1fd0a4f28419497f9722a3daafe3b4186f6b6457e060405160405180910390a350565b5f60035f8473ffffffffffffffffffffffffffffffffffffffff1673ffffffffffffffffffffffffffffffffffffffff1681526020019081526020015f205f9054906101000a900460ff16610d9457826040517f4eef4d1e000000000000000000000000000000000000000000000000000000008152600401610d8b91906110e4565b60405180910390fd5b8190507f000000000000000000000000000000000000000000000000000000000000000073ffffffffffffffffffffffffffffffffffffffff166318457e6133858433876040518663ffffffff1660e01b8152600401610df89594939291906114e9565b5f604051808303815f87803b158015610e0f575f80fd5b505af1158015610e21573d5f803e3d5ffd5b505050508273ffffffffffffffffffffffffffffffffffffffff163373ffffffffffffffffffffffffffffffffffffffff167fc2b4a290c20fb28939d29f102514fbffd2b73c059ffba8b78250c94161d5fcc68385604051610e849291906112fc565b60405180910390a392915050565b6004602052805f5260405f205f915090505481565b610eb5848484846001611034565b610ef657836040517f5274afe7000000000000000000000000000000000000000000000000000000008152600401610eed91906110e4565b60405180910390fd5b50505050565b5f8060015f9054906101000a900473ffffffffffffffffffffffffffffffffffffffff1690505f73ffffffffffffffffffffffffffffffffffffffff168173ffffffffffffffffffffffffffffffffffffffff1614158015610fd657508073ffffffffffffffffffffffffffffffffffffffff1663b70096138530866040518463ffffffff1660e01b8152600401610f969392919061145f565b602060405180830381865afa158015610fb1573d5f803e3d5ffd5b505050506040513d601f19601f82011682018060405250810190610fd591906114be565b5b8061102b57505f8054906101000a900473ffffffffffffffffffffffffffffffffffffffff1673ffffffffffffffffffffffffffffffffffffffff168473ffffffffffffffffffffffffffffffffffffffff16145b91505092915050565b5f806323b872dd60e01b9050604051815f525f1960601c87166004525f1960601c86166024528460445260205f60645f808c5af1925060015f51148316611092578383151615611086573d5f823e3d81fd5b5f883b113d1516831692505b806040525f606052505095945050505050565b5f73ffffffffffffffffffffffffffffffffffffffff82169050919050565b5f6110ce826110a5565b9050919050565b6110de816110c4565b82525050565b5f6020820190506110f75f8301846110d5565b92915050565b5f80fd5b61110a816110c4565b8114611114575f80fd5b50565b5f8135905061112581611101565b92915050565b5f602082840312156111405761113f6110fd565b5b5f61114d84828501611117565b91505092915050565b5f8115159050919050565b61116a81611156565b82525050565b5f6020820190506111835f830184611161565b92915050565b5f819050919050565b61119b81611189565b81146111a5575f80fd5b50565b5f813590506111b681611192565b92915050565b5f80604083850312156111d2576111d16110fd565b5b5f6111df85828601611117565b92505060206111f0858286016111a8565b9150509250929050565b61120381611189565b82525050565b5f60208201905061121c5f8301846111fa565b92915050565b5f61122c826110c4565b9050919050565b61123c81611222565b8114611246575f80fd5b50565b5f8135905061125781611233565b92915050565b5f60208284031215611272576112716110fd565b5b5f61127f84828501611249565b91505092915050565b5f819050919050565b5f6112ab6112a66112a1846110a5565b611288565b6110a5565b9050919050565b5f6112bc82611291565b9050919050565b5f6112cd826112b2565b9050919050565b6112dd816112c3565b82525050565b5f6020820190506112f65f8301846112d4565b92915050565b5f60408201905061130f5f8301856111fa565b61131c60208301846111fa565b9392505050565b5f819050919050565b5f61134661134161133c84611323565b611288565b611189565b9050919050565b6113568161132c565b82525050565b5f60a08201905061136f5f8301886110d5565b61137c60208301876110d5565b611389604083018661134d565b61139660608301856110d5565b6113a360808301846111fa565b9695505050505050565b5f82825260208201905092915050565b7f554e415554484f52495a454400000000000000000000000000000000000000005f82015250565b5f6113f1600c836113ad565b91506113fc826113bd565b602082019050919050565b5f6020820190508181035f83015261141e816113e5565b9050919050565b5f7fffffffff0000000000000000000000000000000000000000000000000000000082169050919050565b61145981611425565b82525050565b5f6060820190506114725f8301866110d5565b61147f60208301856110d5565b61148c6040830184611450565b949350505050565b61149d81611156565b81146114a7575f80fd5b50565b5f815190506114b881611494565b92915050565b5f602082840312156114d3576114d26110fd565b5b5f6114e0848285016114aa565b91505092915050565b5f60a0820190506114fc5f8301886110d5565b61150960208301876110d5565b61151660408301866111fa565b61152360608301856110d5565b61153060808301846111fa565b969550505050505056fea2646970667358221220faa6ae6ddd402bad1fcf5ae3d9c5847d069f5cc35a019d9f6c3bbd01df09824264736f6c634300081500330000000000000000000000005c8a5483bcdb51f858a9cf4a647df6d34fddf81c00000000000000000000000086f11a6db84635f566430e7cb0224f6c4ac6a28f0000000000000000000000008851862f714f2984c3e3bcfc9fafb57d67db6845000000000000000000000000f4f3b37236dd3e0bbcde9eaa1c6553220a30b9ae",
        "nonce": "0x14",
        "chainId": "0x3e7"
      },
      "additionalContracts": [],
      "isFixedGasLimit": false
    },
    {
      "hash": "0x2adf022ebe9aca2c7a162a63f05520ad3e64bd7cb16133f1003ab2a0b78c1c67",
      "transactionType": "CALL",
      "contractName": "DepositTeller",
      "contractAddress": "0xd5b1c83a67fdde10846920462a04f8f67552f8ad",
      "function": "addAsset(address,uint256)",
      "arguments": [
        "0xb88339CB7199b77E23DB6E890353E22632Ba630f",
        "1000000"
      ],
      "transaction": {
        "from": "0x5c8a5483bcdb51f858a9cf4a647df6d34fddf81c",
        "to": "0xd5b1c83a67fdde10846920462a04f8f67552f8ad",
        "gas": "0x1c5ef",
        "value": "0x0",
        "input": "0x66a6a4bd000000000000000000000000b88339cb7199b77e23db6e890353e22632ba630f00000000000000000000000000000000000000000000000000000000000f4240",
        "nonce": "0x15",
        "chainId": "0x3e7"
      },
      "additionalContracts": [],
      "isFixedGasLimit": false
    },
    {
      "hash": "0xf1c174108f803b57b8daeff3aceb603873a94c995dfe129cb842fc03d656ada5",
      "transactionType": "CALL",
      "contractName": null,
      "contractAddress": "0x86f11a6db84635f566430e7cb0224f6c4ac6a28f",
      "function": "setRoleCapability(uint8,address,bytes4,bool)",
      "arguments": [
        "2",
        "0x8851862f714f2984c3E3Bcfc9Fafb57D67dB6845",
        "0x39d6ba32",
        "true"
      ],
      "transaction": {
        "from": "0x5c8a5483bcdb51f858a9cf4a647df6d34fddf81c",
        "to": "0x86f11a6db84635f566430e7cb0224f6c4ac6a28f",
        "gas": "0xadda",
        "value": "0x0",
        "input": "0x7d40583d00000000000000000000000000000000000000000000000000000000000000020000000000000000000000008851862f714f2984c3e3bcfc9fafb57d67db684539d6ba32000000000000000000000000000000000000000000000000000000000000000000000000000000000000000000000000000000000000000000000001",
        "nonce": "0x16",
        "chainId": "0x3e7"
      },
      "additionalContracts": [],
      "isFixedGasLimit": false
    },
    {
      "hash": "0x93d0a63368e6a69dd506520ce1ade6c8f4acc56822be765e5d63055dfa3a98b0",
      "transactionType": "CALL",
      "contractName": null,
      "contractAddress": "0x86f11a6db84635f566430e7cb0224f6c4ac6a28f",
      "function": "setRoleCapability(uint8,address,bytes4,bool)",
      "arguments": [
        "2",
        "0x8851862f714f2984c3E3Bcfc9Fafb57D67dB6845",
        "0x18457e61",
        "true"
      ],
      "transaction": {
        "from": "0x5c8a5483bcdb51f858a9cf4a647df6d34fddf81c",
        "to": "0x86f11a6db84635f566430e7cb0224f6c4ac6a28f",
        "gas": "0xadda",
        "value": "0x0",
        "input": "0x7d40583d00000000000000000000000000000000000000000000000000000000000000020000000000000000000000008851862f714f2984c3e3bcfc9fafb57d67db684518457e61000000000000000000000000000000000000000000000000000000000000000000000000000000000000000000000000000000000000000000000001",
        "nonce": "0x17",
        "chainId": "0x3e7"
      },
      "additionalContracts": [],
      "isFixedGasLimit": false
    },
    {
      "hash": "0x85bcd2405942adeea4c605f7c49e21dbeeb8d59635194cbec7fbe4107f0801f1",
      "transactionType": "CALL",
      "contractName": null,
      "contractAddress": "0x86f11a6db84635f566430e7cb0224f6c4ac6a28f",
      "function": "setUserRole(address,uint8,bool)",
      "arguments": [
        "0xd5B1C83a67FddE10846920462a04F8f67552F8ad",
        "2",
        "true"
      ],
      "transaction": {
        "from": "0x5c8a5483bcdb51f858a9cf4a647df6d34fddf81c",
        "to": "0x86f11a6db84635f566430e7cb0224f6c4ac6a28f",
        "gas": "0x1145b",
        "value": "0x0",
        "input": "0x67aff484000000000000000000000000d5b1c83a67fdde10846920462a04f8f67552f8ad00000000000000000000000000000000000000000000000000000000000000020000000000000000000000000000000000000000000000000000000000000001",
        "nonce": "0x18",
        "chainId": "0x3e7"
      },
      "additionalContracts": [],
      "isFixedGasLimit": false
    }
  ],
  "receipts": [
    {
      "status": "0x1",
      "cumulativeGasUsed": "0x1770cb",
      "logs": [
        {
          "address": "0xd5b1c83a67fdde10846920462a04f8f67552f8ad",
          "topics": [
            "0x8be0079c531659141344cd1fd0a4f28419497f9722a3daafe3b4186f6b6457e0",
            "0x0000000000000000000000005c8a5483bcdb51f858a9cf4a647df6d34fddf81c",
            "0x0000000000000000000000005c8a5483bcdb51f858a9cf4a647df6d34fddf81c"
          ],
          "data": "0x",
          "blockHash": "0xe61dfd5393b9f5f2b6463c4da80f3386cceb4177fbab946e9565412571ae7f97",
          "blockNumber": "0x127ace0",
          "blockTimestamp": "0x691a05a4",
          "transactionHash": "0x856c1aee628b8cb067b4edbe8f1144ab54b9454a662d7e3ebd5980e6477c2409",
          "transactionIndex": "0x2",
          "logIndex": "0x4",
          "removed": false
        },
        {
          "address": "0xd5b1c83a67fdde10846920462a04f8f67552f8ad",
          "topics": [
            "0xa3396fd7f6e0a21b50e5089d2da70d5ac0a3bbbd1f617a93f134b76389980198",
            "0x0000000000000000000000005c8a5483bcdb51f858a9cf4a647df6d34fddf81c",
            "0x00000000000000000000000086f11a6db84635f566430e7cb0224f6c4ac6a28f"
          ],
          "data": "0x",
          "blockHash": "0xe61dfd5393b9f5f2b6463c4da80f3386cceb4177fbab946e9565412571ae7f97",
          "blockNumber": "0x127ace0",
          "blockTimestamp": "0x691a05a4",
          "transactionHash": "0x856c1aee628b8cb067b4edbe8f1144ab54b9454a662d7e3ebd5980e6477c2409",
          "transactionIndex": "0x2",
          "logIndex": "0x5",
          "removed": false
        }
      ],
      "logsBloom": "0x00000000000000000000000000000000000000000008000000800000000000000000000000000000000010000000000008100000000000000000000000000000000000000001000000000000000000000001000000000000000000000000000000000000000000000000000000000000000000000000000000000000080000400000000000020000000000000000000000000000000200000000000000000001000000000000000000000000000400000000000020000000000000000000000000000000000000000000000000000000000000000000000000000000000000000000000000000400000000000000000000000000000000000000000000000000",
      "type": "0x2",
      "transactionHash": "0x856c1aee628b8cb067b4edbe8f1144ab54b9454a662d7e3ebd5980e6477c2409",
      "transactionIndex": "0x2",
      "blockHash": "0xe61dfd5393b9f5f2b6463c4da80f3386cceb4177fbab946e9565412571ae7f97",
      "blockNumber": "0x127ace0",
      "gasUsed": "0x141bc3",
      "effectiveGasPrice": "0x111c3477",
      "from": "0x5c8a5483bcdb51f858a9cf4a647df6d34fddf81c",
      "to": null,
      "contractAddress": "0xd5b1c83a67fdde10846920462a04f8f67552f8ad"
    },
    {
      "status": "0x1",
      "cumulativeGasUsed": "0x18b96f",
      "logs": [
        {
          "address": "0xd5b1c83a67fdde10846920462a04f8f67552f8ad",
          "topics": [
            "0x66ace591f7c88075839f4a0246420d0cc8a34cbe9a924cd0e1ca63c336344f4b",
            "0x000000000000000000000000b88339cb7199b77e23db6e890353e22632ba630f"
          ],
          "data": "0x00000000000000000000000000000000000000000000000000000000000f4240",
          "blockHash": "0xe61dfd5393b9f5f2b6463c4da80f3386cceb4177fbab946e9565412571ae7f97",
          "blockNumber": "0x127ace0",
          "blockTimestamp": "0x691a05a4",
          "transactionHash": "0x2adf022ebe9aca2c7a162a63f05520ad3e64bd7cb16133f1003ab2a0b78c1c67",
          "transactionIndex": "0x3",
          "logIndex": "0x6",
          "removed": false
        }
      ],
      "logsBloom": "0x00000000000000000000000000000000000000000008000000000000000000000000000000000000000040000000000000000000000000000000000000000000008000000001000000000000000000000000000000000000000000000000000000000000000000000000000000000000000000000000000000000000080000000000002000000000000000000000000000000000000000000000000000000000000000000000000000000000000000000000000000000000000400000000400000000400000000000000000000000000000000000000000000000000000000000000000000000000000000000000000000000000000000000000000000000000",
      "type": "0x2",
      "transactionHash": "0x2adf022ebe9aca2c7a162a63f05520ad3e64bd7cb16133f1003ab2a0b78c1c67",
      "transactionIndex": "0x3",
      "blockHash": "0xe61dfd5393b9f5f2b6463c4da80f3386cceb4177fbab946e9565412571ae7f97",
      "blockNumber": "0x127ace0",
      "gasUsed": "0x148a4",
      "effectiveGasPrice": "0x111c3477",
      "from": "0x5c8a5483bcdb51f858a9cf4a647df6d34fddf81c",
      "to": "0xd5b1c83a67fdde10846920462a04f8f67552f8ad",
      "contractAddress": null
    },
    {
      "status": "0x1",
      "cumulativeGasUsed": "0x19374e",
      "logs": [
        {
          "address": "0x86f11a6db84635f566430e7cb0224f6c4ac6a28f",
          "topics": [
            "0xa52ea92e6e955aa8ac66420b86350f7139959adfcc7e6a14eee1bd116d09860e",
            "0x0000000000000000000000000000000000000000000000000000000000000002",
            "0x0000000000000000000000008851862f714f2984c3e3bcfc9fafb57d67db6845",
            "0x39d6ba3200000000000000000000000000000000000000000000000000000000"
          ],
          "data": "0x0000000000000000000000000000000000000000000000000000000000000001",
          "blockHash": "0xe61dfd5393b9f5f2b6463c4da80f3386cceb4177fbab946e9565412571ae7f97",
          "blockNumber": "0x127ace0",
          "blockTimestamp": "0x691a05a4",
          "transactionHash": "0xf1c174108f803b57b8daeff3aceb603873a94c995dfe129cb842fc03d656ada5",
          "transactionIndex": "0x4",
          "logIndex": "0x7",
          "removed": false
        }
      ],
      "logsBloom": "0x04000000010000000000000000000000000000000000020000000000000000000000000000000000000000000000000000000000000020000000000000000000800000000000000000000000000000000000000000000000000000000000000000000000000000000000000000000000000000000000480000000000000000000000000000000000000000000000000000000000010000000000000000000000000000000000000000000100000000000000000000000000000000004000000000000000000000000000000000080000000000000000000000010004000000000000000000000000000000000000000000000000008000000000000000004000",
      "type": "0x2",
      "transactionHash": "0xf1c174108f803b57b8daeff3aceb603873a94c995dfe129cb842fc03d656ada5",
      "transactionIndex": "0x4",
      "blockHash": "0xe61dfd5393b9f5f2b6463c4da80f3386cceb4177fbab946e9565412571ae7f97",
      "blockNumber": "0x127ace0",
      "gasUsed": "0x7ddf",
      "effectiveGasPrice": "0x111c3477",
      "from": "0x5c8a5483bcdb51f858a9cf4a647df6d34fddf81c",
      "to": "0x86f11a6db84635f566430e7cb0224f6c4ac6a28f",
      "contractAddress": null
    },
    {
      "status": "0x1",
      "cumulativeGasUsed": "0x19b52d",
      "logs": [
        {
          "address": "0x86f11a6db84635f566430e7cb0224f6c4ac6a28f",
          "topics": [
            "0xa52ea92e6e955aa8ac66420b86350f7139959adfcc7e6a14eee1bd116d09860e",
            "0x0000000000000000000000000000000000000000000000000000000000000002",
            "0x0000000000000000000000008851862f714f2984c3e3bcfc9fafb57d67db6845",
            "0x18457e6100000000000000000000000000000000000000000000000000000000"
          ],
          "data": "0x0000000000000000000000000000000000000000000000000000000000000001",
          "blockHash": "0xe61dfd5393b9f5f2b6463c4da80f3386cceb4177fbab946e9565412571ae7f97",
          "blockNumber": "0x127ace0",
          "blockTimestamp": "0x691a05a4",
          "transactionHash": "0x93d0a63368e6a69dd506520ce1ade6c8f4acc56822be765e5d63055dfa3a98b0",
          "transactionIndex": "0x5",
          "logIndex": "0x8",
          "removed": false
        }
      ],
      "logsBloom": "0x04000000010000000000000000000000000000000000000000000000000000000000000000000000000080000000000000000000000000000000000000000000800000000000000000000000000000000000000000000000000000000000000000000000000000000000000000000000000000000000480000000000000000000000000000000000000000000000000000000000010000000000000000000000000000020000000000000100000000000000000000000000000000004000000000000000000000000000000000080000000800000000000000010000000000000000000000000000000000000000000000000000008000000000000000004000",
      "type": "0x2",
      "transactionHash": "0x93d0a63368e6a69dd506520ce1ade6c8f4acc56822be765e5d63055dfa3a98b0",
      "transactionIndex": "0x5",
      "blockHash": "0xe61dfd5393b9f5f2b6463c4da80f3386cceb4177fbab946e9565412571ae7f97",
      "blockNumber": "0x127ace0",
      "gasUsed": "0x7ddf",
      "effectiveGasPrice": "0x111c3477",
      "from": "0x5c8a5483bcdb51f858a9cf4a647df6d34fddf81c",
      "to": "0x86f11a6db84635f566430e7cb0224f6c4ac6a28f",
      "contractAddress": null
    },
    {
      "status": "0x1",
      "cumulativeGasUsed": "0x1a7d41",
      "logs": [
        {
          "address": "0x86f11a6db84635f566430e7cb0224f6c4ac6a28f",
          "topics": [
            "0x4c9bdd0c8e073eb5eda2250b18d8e5121ff27b62064fbeeeed4869bb99bc5bf2",
            "0x000000000000000000000000d5b1c83a67fdde10846920462a04f8f67552f8ad",
            "0x0000000000000000000000000000000000000000000000000000000000000002"
          ],
          "data": "0x0000000000000000000000000000000000000000000000000000000000000001",
          "blockHash": "0xe61dfd5393b9f5f2b6463c4da80f3386cceb4177fbab946e9565412571ae7f97",
          "blockNumber": "0x127ace0",
          "blockTimestamp": "0x691a05a4",
          "transactionHash": "0x85bcd2405942adeea4c605f7c49e21dbeeb8d59635194cbec7fbe4107f0801f1",
          "transactionIndex": "0x6",
          "logIndex": "0x9",
          "removed": false
        }
      ],
      "logsBloom": "0x04000000010000000000000000000000000000000000000000000000000000000000000000000000000000000000000000000000000000000000000000000000000000000000000000000000000000000000000000000000000000000000000000000000000000000000000000000000000000000000400000000000000000000000000000000000080000000000000000000080040000000000000000000000000000000000000000000100000000000000000000000000000000004000000000000000000000000000000000000000000000010000000000000000000000000000000000000000000000000000000000400080008000000000000000000000",
      "type": "0x2",
      "transactionHash": "0x85bcd2405942adeea4c605f7c49e21dbeeb8d59635194cbec7fbe4107f0801f1",
      "transactionIndex": "0x6",
      "blockHash": "0xe61dfd5393b9f5f2b6463c4da80f3386cceb4177fbab946e9565412571ae7f97",
      "blockNumber": "0x127ace0",
      "gasUsed": "0xc814",
      "effectiveGasPrice": "0x111c3477",
      "from": "0x5c8a5483bcdb51f858a9cf4a647df6d34fddf81c",
      "to": "0x86f11a6db84635f566430e7cb0224f6c4ac6a28f",
      "contractAddress": null
    }
  ],
  "libraries": [],
  "pending": [],
  "returns": {},
  "timestamp": 1763313061999,
  "chain": 999,
  "commit": "d7b1080"
}